{
  "_format": "hh-sol-artifact-1",
  "contractName": "MyEpicGame",
  "sourceName": "contracts/MyEpicGame.sol",
  "abi": [
    {
      "inputs": [
        {
          "internalType": "string",
          "name": "bossName",
          "type": "string"
        },
        {
          "internalType": "string",
          "name": "bossImageURI",
          "type": "string"
        },
        {
          "internalType": "uint256",
          "name": "bossHp",
          "type": "uint256"
        },
        {
          "internalType": "uint256",
          "name": "bossAttackDamage",
          "type": "uint256"
        },
        {
          "internalType": "string[]",
          "name": "characterNames",
          "type": "string[]"
        },
        {
          "internalType": "string[]",
          "name": "characterImageURIs",
          "type": "string[]"
        },
        {
          "internalType": "uint256[]",
          "name": "characterHp",
          "type": "uint256[]"
        },
        {
          "internalType": "uint256[]",
          "name": "characterAttackDmg",
          "type": "uint256[]"
        },
        {
          "internalType": "uint256[]",
          "name": "characterShield",
          "type": "uint256[]"
        }
      ],
      "stateMutability": "nonpayable",
      "type": "constructor"
    },
    {
      "anonymous": false,
      "inputs": [
        {
          "indexed": true,
          "internalType": "address",
          "name": "owner",
          "type": "address"
        },
        {
          "indexed": true,
          "internalType": "address",
          "name": "approved",
          "type": "address"
        },
        {
          "indexed": true,
          "internalType": "uint256",
          "name": "tokenId",
          "type": "uint256"
        }
      ],
      "name": "Approval",
      "type": "event"
    },
    {
      "anonymous": false,
      "inputs": [
        {
          "indexed": true,
          "internalType": "address",
          "name": "owner",
          "type": "address"
        },
        {
          "indexed": true,
          "internalType": "address",
          "name": "operator",
          "type": "address"
        },
        {
          "indexed": false,
          "internalType": "bool",
          "name": "approved",
          "type": "bool"
        }
      ],
      "name": "ApprovalForAll",
      "type": "event"
    },
    {
      "anonymous": false,
      "inputs": [
        {
          "indexed": false,
          "internalType": "uint256",
          "name": "newBossHp",
          "type": "uint256"
        },
        {
          "indexed": false,
          "internalType": "uint256",
          "name": "newPlayerHp",
          "type": "uint256"
        }
      ],
      "name": "AttackBossComplete",
      "type": "event"
    },
    {
      "anonymous": false,
      "inputs": [
        {
          "indexed": false,
          "internalType": "uint256",
          "name": "newBossHp",
          "type": "uint256"
        },
        {
          "indexed": false,
          "internalType": "uint256",
          "name": "newPlayerHp",
          "type": "uint256"
        }
      ],
      "name": "AttackCharacterComplete",
      "type": "event"
    },
    {
      "anonymous": false,
      "inputs": [
        {
          "indexed": false,
          "internalType": "address",
          "name": "sender",
          "type": "address"
        },
        {
          "indexed": false,
          "internalType": "uint256",
          "name": "tokenId",
          "type": "uint256"
        },
        {
          "indexed": false,
          "internalType": "uint256",
          "name": "characterIndex",
          "type": "uint256"
        }
      ],
      "name": "CharacterNFTMinted",
      "type": "event"
    },
    {
      "anonymous": false,
      "inputs": [
        {
          "indexed": true,
          "internalType": "address",
          "name": "from",
          "type": "address"
        },
        {
          "indexed": true,
          "internalType": "address",
          "name": "to",
          "type": "address"
        },
        {
          "indexed": true,
          "internalType": "uint256",
          "name": "tokenId",
          "type": "uint256"
        }
      ],
      "name": "Transfer",
      "type": "event"
    },
    {
      "inputs": [
        {
          "internalType": "address",
          "name": "to",
          "type": "address"
        },
        {
          "internalType": "uint256",
          "name": "tokenId",
          "type": "uint256"
        }
      ],
      "name": "approve",
      "outputs": [],
      "stateMutability": "nonpayable",
      "type": "function"
    },
    {
      "inputs": [],
      "name": "attackBoss",
      "outputs": [],
      "stateMutability": "nonpayable",
      "type": "function"
    },
    {
      "inputs": [],
      "name": "attackCharacter",
      "outputs": [],
      "stateMutability": "nonpayable",
      "type": "function"
    },
    {
      "inputs": [
        {
          "internalType": "address",
          "name": "owner",
          "type": "address"
        }
      ],
      "name": "balanceOf",
      "outputs": [
        {
          "internalType": "uint256",
          "name": "",
          "type": "uint256"
        }
      ],
      "stateMutability": "view",
      "type": "function"
    },
    {
      "inputs": [],
      "name": "bigBoss",
      "outputs": [
        {
          "internalType": "string",
          "name": "name",
          "type": "string"
        },
        {
          "internalType": "string",
          "name": "imageURI",
          "type": "string"
        },
        {
          "internalType": "uint256",
          "name": "hp",
          "type": "uint256"
        },
        {
          "internalType": "uint256",
          "name": "maxHp",
          "type": "uint256"
        },
        {
          "internalType": "uint256",
          "name": "attackDamage",
          "type": "uint256"
        }
      ],
      "stateMutability": "view",
      "type": "function"
    },
    {
      "inputs": [],
      "name": "checkIfUserHasNFT",
      "outputs": [
        {
          "components": [
            {
              "internalType": "uint256",
              "name": "characterIndex",
              "type": "uint256"
            },
            {
              "internalType": "string",
              "name": "name",
              "type": "string"
            },
            {
              "internalType": "string",
              "name": "imageURI",
              "type": "string"
            },
            {
              "internalType": "uint256",
              "name": "hp",
              "type": "uint256"
            },
            {
              "internalType": "uint256",
              "name": "maxHp",
              "type": "uint256"
            },
            {
              "internalType": "uint256",
              "name": "attackDamage",
              "type": "uint256"
            },
            {
              "internalType": "uint256",
              "name": "shield",
              "type": "uint256"
            }
          ],
          "internalType": "struct MyEpicGame.CharacterAttributes",
          "name": "",
          "type": "tuple"
        }
      ],
      "stateMutability": "view",
      "type": "function"
    },
    {
      "inputs": [
        {
          "internalType": "uint256",
          "name": "",
          "type": "uint256"
        }
      ],
      "name": "defaultAttributes",
      "outputs": [
        {
          "internalType": "uint256",
          "name": "characterIndex",
          "type": "uint256"
        },
        {
          "internalType": "string",
          "name": "name",
          "type": "string"
        },
        {
          "internalType": "string",
          "name": "imageURI",
          "type": "string"
        },
        {
          "internalType": "uint256",
          "name": "hp",
          "type": "uint256"
        },
        {
          "internalType": "uint256",
          "name": "maxHp",
          "type": "uint256"
        },
        {
          "internalType": "uint256",
          "name": "attackDamage",
          "type": "uint256"
        },
        {
          "internalType": "uint256",
          "name": "shield",
          "type": "uint256"
        }
      ],
      "stateMutability": "view",
      "type": "function"
    },
    {
      "inputs": [],
      "name": "getAllDefaultCharacters",
      "outputs": [
        {
          "components": [
            {
              "internalType": "uint256",
              "name": "characterIndex",
              "type": "uint256"
            },
            {
              "internalType": "string",
              "name": "name",
              "type": "string"
            },
            {
              "internalType": "string",
              "name": "imageURI",
              "type": "string"
            },
            {
              "internalType": "uint256",
              "name": "hp",
              "type": "uint256"
            },
            {
              "internalType": "uint256",
              "name": "maxHp",
              "type": "uint256"
            },
            {
              "internalType": "uint256",
              "name": "attackDamage",
              "type": "uint256"
            },
            {
              "internalType": "uint256",
              "name": "shield",
              "type": "uint256"
            }
          ],
          "internalType": "struct MyEpicGame.CharacterAttributes[]",
          "name": "",
          "type": "tuple[]"
        }
      ],
      "stateMutability": "view",
      "type": "function"
    },
    {
      "inputs": [
        {
          "internalType": "uint256",
          "name": "tokenId",
          "type": "uint256"
        }
      ],
      "name": "getApproved",
      "outputs": [
        {
          "internalType": "address",
          "name": "",
          "type": "address"
        }
      ],
      "stateMutability": "view",
      "type": "function"
    },
    {
      "inputs": [],
      "name": "getBigBoss",
      "outputs": [
        {
          "components": [
            {
              "internalType": "string",
              "name": "name",
              "type": "string"
            },
            {
              "internalType": "string",
              "name": "imageURI",
              "type": "string"
            },
            {
              "internalType": "uint256",
              "name": "hp",
              "type": "uint256"
            },
            {
              "internalType": "uint256",
              "name": "maxHp",
              "type": "uint256"
            },
            {
              "internalType": "uint256",
              "name": "attackDamage",
              "type": "uint256"
            }
          ],
          "internalType": "struct MyEpicGame.BigBoss",
          "name": "",
          "type": "tuple"
        }
      ],
      "stateMutability": "view",
      "type": "function"
    },
    {
      "inputs": [
        {
          "internalType": "address",
          "name": "owner",
          "type": "address"
        },
        {
          "internalType": "address",
          "name": "operator",
          "type": "address"
        }
      ],
      "name": "isApprovedForAll",
      "outputs": [
        {
          "internalType": "bool",
          "name": "",
          "type": "bool"
        }
      ],
      "stateMutability": "view",
      "type": "function"
    },
    {
      "inputs": [
        {
          "internalType": "uint256",
          "name": "_characterIndex",
          "type": "uint256"
        }
      ],
      "name": "mintCharacterNFT",
      "outputs": [],
      "stateMutability": "nonpayable",
      "type": "function"
    },
    {
      "inputs": [],
      "name": "name",
      "outputs": [
        {
          "internalType": "string",
          "name": "",
          "type": "string"
        }
      ],
      "stateMutability": "view",
      "type": "function"
    },
    {
      "inputs": [
        {
          "internalType": "uint256",
          "name": "",
          "type": "uint256"
        }
      ],
      "name": "nftHolderAttributes",
      "outputs": [
        {
          "internalType": "uint256",
          "name": "characterIndex",
          "type": "uint256"
        },
        {
          "internalType": "string",
          "name": "name",
          "type": "string"
        },
        {
          "internalType": "string",
          "name": "imageURI",
          "type": "string"
        },
        {
          "internalType": "uint256",
          "name": "hp",
          "type": "uint256"
        },
        {
          "internalType": "uint256",
          "name": "maxHp",
          "type": "uint256"
        },
        {
          "internalType": "uint256",
          "name": "attackDamage",
          "type": "uint256"
        },
        {
          "internalType": "uint256",
          "name": "shield",
          "type": "uint256"
        }
      ],
      "stateMutability": "view",
      "type": "function"
    },
    {
      "inputs": [
        {
          "internalType": "address",
          "name": "",
          "type": "address"
        }
      ],
      "name": "nftHolders",
      "outputs": [
        {
          "internalType": "uint256",
          "name": "",
          "type": "uint256"
        }
      ],
      "stateMutability": "view",
      "type": "function"
    },
    {
      "inputs": [
        {
          "internalType": "uint256",
          "name": "tokenId",
          "type": "uint256"
        }
      ],
      "name": "ownerOf",
      "outputs": [
        {
          "internalType": "address",
          "name": "",
          "type": "address"
        }
      ],
      "stateMutability": "view",
      "type": "function"
    },
    {
      "inputs": [
        {
          "internalType": "address",
          "name": "from",
          "type": "address"
        },
        {
          "internalType": "address",
          "name": "to",
          "type": "address"
        },
        {
          "internalType": "uint256",
          "name": "tokenId",
          "type": "uint256"
        }
      ],
      "name": "safeTransferFrom",
      "outputs": [],
      "stateMutability": "nonpayable",
      "type": "function"
    },
    {
      "inputs": [
        {
          "internalType": "address",
          "name": "from",
          "type": "address"
        },
        {
          "internalType": "address",
          "name": "to",
          "type": "address"
        },
        {
          "internalType": "uint256",
          "name": "tokenId",
          "type": "uint256"
        },
        {
          "internalType": "bytes",
          "name": "data",
          "type": "bytes"
        }
      ],
      "name": "safeTransferFrom",
      "outputs": [],
      "stateMutability": "nonpayable",
      "type": "function"
    },
    {
      "inputs": [
        {
          "internalType": "address",
          "name": "operator",
          "type": "address"
        },
        {
          "internalType": "bool",
          "name": "approved",
          "type": "bool"
        }
      ],
      "name": "setApprovalForAll",
      "outputs": [],
      "stateMutability": "nonpayable",
      "type": "function"
    },
    {
      "inputs": [
        {
          "internalType": "bytes4",
          "name": "interfaceId",
          "type": "bytes4"
        }
      ],
      "name": "supportsInterface",
      "outputs": [
        {
          "internalType": "bool",
          "name": "",
          "type": "bool"
        }
      ],
      "stateMutability": "view",
      "type": "function"
    },
    {
      "inputs": [],
      "name": "symbol",
      "outputs": [
        {
          "internalType": "string",
          "name": "",
          "type": "string"
        }
      ],
      "stateMutability": "view",
      "type": "function"
    },
    {
      "inputs": [
        {
          "internalType": "uint256",
          "name": "_tokenId",
          "type": "uint256"
        }
      ],
      "name": "tokenURI",
      "outputs": [
        {
          "internalType": "string",
          "name": "",
          "type": "string"
        }
      ],
      "stateMutability": "view",
      "type": "function"
    },
    {
      "inputs": [
        {
          "internalType": "address",
          "name": "from",
          "type": "address"
        },
        {
          "internalType": "address",
          "name": "to",
          "type": "address"
        },
        {
          "internalType": "uint256",
          "name": "tokenId",
          "type": "uint256"
        }
      ],
      "name": "transferFrom",
      "outputs": [],
      "stateMutability": "nonpayable",
      "type": "function"
    }
  ],
  "bytecode": "0x60806040523480156200001157600080fd5b5060405162005f1438038062005f14833981810160405281019062000037919062000ab4565b6040518060400160405280600681526020017f4865726f657300000000000000000000000000000000000000000000000000008152506040518060400160405280600481526020017f4845524f000000000000000000000000000000000000000000000000000000008152508160009080519060200190620000bb9291906200081c565b508060019080519060200190620000d49291906200081c565b5050506040518060a001604052808a815260200189815260200188815260200188815260200187815250600660008201518160000190805190602001906200011e9291906200081c565b5060208201518160010190805190602001906200013d9291906200081c565b50604082015181600201556060820151816003015560808201518160040155905050620002c06040518060600160405280602a815260200162005eea602a9139600660000180546200018f9062000e66565b80601f0160208091040260200160405190810160405280929190818152602001828054620001bd9062000e66565b80156200020e5780601f10620001e2576101008083540402835291602001916200020e565b820191906000526020600020905b815481529060010190602001808311620001f057829003601f168201915b5050505050600660020154600660010180546200022b9062000e66565b80601f0160208091040260200160405190810160405280929190818152602001828054620002599062000e66565b8015620002aa5780601f106200027e57610100808354040283529160200191620002aa565b820191906000526020600020905b8154815290600101906020018083116200028c57829003601f168201915b50505050506200074760201b620020e81760201c565b60005b85518110156200073757600c6040518060e001604052808381526020018884815181106200031a577f4e487b7100000000000000000000000000000000000000000000000000000000600052603260045260246000fd5b6020026020010151815260200187848151811062000361577f4e487b7100000000000000000000000000000000000000000000000000000000600052603260045260246000fd5b60200260200101518152602001868481518110620003a8577f4e487b7100000000000000000000000000000000000000000000000000000000600052603260045260246000fd5b60200260200101518152602001868481518110620003ef577f4e487b7100000000000000000000000000000000000000000000000000000000600052603260045260246000fd5b6020026020010151815260200185848151811062000436577f4e487b7100000000000000000000000000000000000000000000000000000000600052603260045260246000fd5b602002602001015181526020018484815181106200047d577f4e487b7100000000000000000000000000000000000000000000000000000000600052603260045260246000fd5b60200260200101518152509080600181540180825580915050600190039060005260206000209060070201600090919091909150600082015181600001556020820151816001019080519060200190620004d99291906200081c565b506040820151816002019080519060200190620004f89291906200081c565b50606082015181600301556080820151816004015560a0820151816005015560c0820151816006015550506000600c828154811062000560577f4e487b7100000000000000000000000000000000000000000000000000000000600052603260045260246000fd5b90600052602060002090600702016040518060e001604052908160008201548152602001600182018054620005959062000e66565b80601f0160208091040260200160405190810160405280929190818152602001828054620005c39062000e66565b8015620006145780601f10620005e85761010080835404028352916020019162000614565b820191906000526020600020905b815481529060010190602001808311620005f657829003601f168201915b505050505081526020016002820180546200062f9062000e66565b80601f01602080910402602001604051908101604052809291908181526020018280546200065d9062000e66565b8015620006ae5780601f106200068257610100808354040283529160200191620006ae565b820191906000526020600020905b8154815290600101906020018083116200069057829003601f168201915b5050505050815260200160038201548152602001600482015481526020016005820154815260200160068201548152505090506200071f60405180606001604052806025815260200162005ec5602591398260200151836060015184604001516200074760201b620020e81760201c565b506001816200072f919062000dc9565b9050620002c3565b5050505050505050505062000f8a565b620007ed8484848460405160240162000764949392919062000c8e565b6040516020818303038152906040527f5d1a971a000000000000000000000000000000000000000000000000000000007bffffffffffffffffffffffffffffffffffffffffffffffffffffffff19166020820180517bffffffffffffffffffffffffffffffffffffffffffffffffffffffff8381831617835250505050620007f360201b60201c565b50505050565b60008151905060006a636f6e736f6c652e6c6f679050602083016000808483855afa5050505050565b8280546200082a9062000e66565b90600052602060002090601f0160209004810192826200084e57600085556200089a565b82601f106200086957805160ff19168380011785556200089a565b828001600101855582156200089a579182015b82811115620008995782518255916020019190600101906200087c565b5b509050620008a99190620008ad565b5090565b5b80821115620008c8576000816000905550600101620008ae565b5090565b6000620008e3620008dd8462000d19565b62000cf0565b905080838252602082019050828560208602820111156200090357600080fd5b60005b858110156200095257815167ffffffffffffffff8111156200092757600080fd5b80860162000936898262000a70565b8552602085019450602084019350505060018101905062000906565b5050509392505050565b6000620009736200096d8462000d48565b62000cf0565b905080838252602082019050828560208602820111156200099357600080fd5b60005b85811015620009c75781620009ac888262000a9d565b84526020840193506020830192505060018101905062000996565b5050509392505050565b6000620009e8620009e28462000d77565b62000cf0565b90508281526020810184848401111562000a0157600080fd5b62000a0e84828562000e30565b509392505050565b600082601f83011262000a2857600080fd5b815162000a3a848260208601620008cc565b91505092915050565b600082601f83011262000a5557600080fd5b815162000a678482602086016200095c565b91505092915050565b600082601f83011262000a8257600080fd5b815162000a94848260208601620009d1565b91505092915050565b60008151905062000aae8162000f70565b92915050565b60008060008060008060008060006101208a8c03121562000ad457600080fd5b60008a015167ffffffffffffffff81111562000aef57600080fd5b62000afd8c828d0162000a70565b99505060208a015167ffffffffffffffff81111562000b1b57600080fd5b62000b298c828d0162000a70565b985050604062000b3c8c828d0162000a9d565b975050606062000b4f8c828d0162000a9d565b96505060808a015167ffffffffffffffff81111562000b6d57600080fd5b62000b7b8c828d0162000a16565b95505060a08a015167ffffffffffffffff81111562000b9957600080fd5b62000ba78c828d0162000a16565b94505060c08a015167ffffffffffffffff81111562000bc557600080fd5b62000bd38c828d0162000a43565b93505060e08a015167ffffffffffffffff81111562000bf157600080fd5b62000bff8c828d0162000a43565b9250506101008a015167ffffffffffffffff81111562000c1e57600080fd5b62000c2c8c828d0162000a43565b9150509295985092959850929598565b600062000c498262000dad565b62000c55818562000db8565b935062000c6781856020860162000e30565b62000c728162000f5f565b840191505092915050565b62000c888162000e26565b82525050565b6000608082019050818103600083015262000caa818762000c3c565b9050818103602083015262000cc0818662000c3c565b905062000cd1604083018562000c7d565b818103606083015262000ce5818462000c3c565b905095945050505050565b600062000cfc62000d0f565b905062000d0a828262000e9c565b919050565b6000604051905090565b600067ffffffffffffffff82111562000d375762000d3662000f30565b5b602082029050602081019050919050565b600067ffffffffffffffff82111562000d665762000d6562000f30565b5b602082029050602081019050919050565b600067ffffffffffffffff82111562000d955762000d9462000f30565b5b62000da08262000f5f565b9050602081019050919050565b600081519050919050565b600082825260208201905092915050565b600062000dd68262000e26565b915062000de38362000e26565b9250827fffffffffffffffffffffffffffffffffffffffffffffffffffffffffffffffff0382111562000e1b5762000e1a62000ed2565b5b828201905092915050565b6000819050919050565b60005b8381101562000e5057808201518184015260208101905062000e33565b8381111562000e60576000848401525b50505050565b6000600282049050600182168062000e7f57607f821691505b6020821081141562000e965762000e9562000f01565b5b50919050565b62000ea78262000f5f565b810181811067ffffffffffffffff8211171562000ec95762000ec862000f30565b5b80604052505050565b7f4e487b7100000000000000000000000000000000000000000000000000000000600052601160045260246000fd5b7f4e487b7100000000000000000000000000000000000000000000000000000000600052602260045260246000fd5b7f4e487b7100000000000000000000000000000000000000000000000000000000600052604160045260246000fd5b6000601f19601f8301169050919050565b62000f7b8162000e26565b811462000f8757600080fd5b50565b614f2b8062000f9a6000396000f3fe608060405234801561001057600080fd5b506004361061014d5760003560e01c806390a7b1e2116100c3578063b953084e1161007c578063b953084e146103c0578063c87b56dd146103de578063c8cf27f41461040e578063d4f24c5b1461042c578063e985e9c514610436578063f8b81ef7146104665761014d565b806390a7b1e21461030857806395d89b411461031257806398da4c9514610330578063a22cb46514610366578063a9c3267914610382578063b88d4fde146103a45761014d565b806323b872dd1161011557806323b872dd1461020a57806342842e0e146102265780636352211e146102425780636a9081521461027257806370a08231146102a85780637df124a1146102d85761014d565b806301ffc9a7146101525780630665f9611461018257806306fdde03146101a0578063081812fc146101be578063095ea7b3146101ee575b600080fd5b61016c60048036038101906101679190613683565b610482565b6040516101799190613ec8565b60405180910390f35b61018a610564565b60405161019791906142a4565b60405180910390f35b6101a86106c0565b6040516101b59190613ee3565b60405180910390f35b6101d860048036038101906101d391906136d5565b610752565b6040516101e59190613e08565b60405180910390f35b61020860048036038101906102039190613647565b610798565b005b610224600480360381019061021f9190613541565b6108b0565b005b610240600480360381019061023b9190613541565b610910565b005b61025c600480360381019061025791906136d5565b610930565b6040516102699190613e08565b60405180910390f35b61028c600480360381019061028791906136d5565b6109e2565b60405161029f9796959493929190614303565b60405180910390f35b6102c260048036038101906102bd91906134dc565b610b34565b6040516102cf91906142e8565b60405180910390f35b6102f260048036038101906102ed91906134dc565b610bec565b6040516102ff91906142e8565b60405180910390f35b610310610c04565b005b61031a610f6c565b6040516103279190613ee3565b60405180910390f35b61034a600480360381019061034591906136d5565b610ffe565b60405161035d9796959493929190614303565b60405180910390f35b610380600480360381019061037b919061360b565b611150565b005b61038a611166565b60405161039b959493929190613fe9565b60405180910390f35b6103be60048036038101906103b99190613590565b61129a565b005b6103c86112fc565b6040516103d59190613ea6565b60405180910390f35b6103f860048036038101906103f391906136d5565b6114b1565b6040516104059190613ee3565b60405180910390f35b6104166116d6565b60405161042391906142c6565b60405180910390f35b6104346118b8565b005b610450600480360381019061044b9190613505565b611c05565b60405161045d9190613ec8565b60405180910390f35b610480600480360381019061047b91906136d5565b611c99565b005b60007f80ac58cd000000000000000000000000000000000000000000000000000000007bffffffffffffffffffffffffffffffffffffffffffffffffffffffff1916827bffffffffffffffffffffffffffffffffffffffffffffffffffffffff1916148061054d57507f5b5e139f000000000000000000000000000000000000000000000000000000007bffffffffffffffffffffffffffffffffffffffffffffffffffffffff1916827bffffffffffffffffffffffffffffffffffffffffffffffffffffffff1916145b8061055d575061055c8261218a565b5b9050919050565b61056c6132fc565b60066040518060a001604052908160008201805461058990614657565b80601f01602080910402602001604051908101604052809291908181526020018280546105b590614657565b80156106025780601f106105d757610100808354040283529160200191610602565b820191906000526020600020905b8154815290600101906020018083116105e557829003601f168201915b5050505050815260200160018201805461061b90614657565b80601f016020809104026020016040519081016040528092919081815260200182805461064790614657565b80156106945780601f1061066957610100808354040283529160200191610694565b820191906000526020600020905b81548152906001019060200180831161067757829003601f168201915b505050505081526020016002820154815260200160038201548152602001600482015481525050905090565b6060600080546106cf90614657565b80601f01602080910402602001604051908101604052809291908181526020018280546106fb90614657565b80156107485780601f1061071d57610100808354040283529160200191610748565b820191906000526020600020905b81548152906001019060200180831161072b57829003601f168201915b5050505050905090565b600061075d826121f4565b6004600083815260200190815260200160002060009054906101000a900473ffffffffffffffffffffffffffffffffffffffff169050919050565b60006107a382610930565b90508073ffffffffffffffffffffffffffffffffffffffff168373ffffffffffffffffffffffffffffffffffffffff161415610814576040517f08c379a000000000000000000000000000000000000000000000000000000000815260040161080b90614264565b60405180910390fd5b8073ffffffffffffffffffffffffffffffffffffffff1661083361223f565b73ffffffffffffffffffffffffffffffffffffffff16148061086257506108618161085c61223f565b611c05565b5b6108a1576040517f08c379a000000000000000000000000000000000000000000000000000000000815260040161089890614204565b60405180910390fd5b6108ab8383612247565b505050565b6108c16108bb61223f565b82612300565b610900576040517f08c379a00000000000000000000000000000000000000000000000000000000081526004016108f790614284565b60405180910390fd5b61090b838383612395565b505050565b61092b8383836040518060200160405280600081525061129a565b505050565b6000806002600084815260200190815260200160002060009054906101000a900473ffffffffffffffffffffffffffffffffffffffff169050600073ffffffffffffffffffffffffffffffffffffffff168173ffffffffffffffffffffffffffffffffffffffff1614156109d9576040517f08c379a00000000000000000000000000000000000000000000000000000000081526004016109d090614244565b60405180910390fd5b80915050919050565b600e602052806000526040600020600091509050806000015490806001018054610a0b90614657565b80601f0160208091040260200160405190810160405280929190818152602001828054610a3790614657565b8015610a845780601f10610a5957610100808354040283529160200191610a84565b820191906000526020600020905b815481529060010190602001808311610a6757829003601f168201915b505050505090806002018054610a9990614657565b80601f0160208091040260200160405190810160405280929190818152602001828054610ac590614657565b8015610b125780601f10610ae757610100808354040283529160200191610b12565b820191906000526020600020905b815481529060010190602001808311610af557829003601f168201915b5050505050908060030154908060040154908060050154908060060154905087565b60008073ffffffffffffffffffffffffffffffffffffffff168273ffffffffffffffffffffffffffffffffffffffff161415610ba5576040517f08c379a0000000000000000000000000000000000000000000000000000000008152600401610b9c906141c4565b60405180910390fd5b600360008373ffffffffffffffffffffffffffffffffffffffff1673ffffffffffffffffffffffffffffffffffffffff168152602001908152602001600020549050919050565b600f6020528060005260406000206000915090505481565b6000600f60003373ffffffffffffffffffffffffffffffffffffffff1673ffffffffffffffffffffffffffffffffffffffff1681526020019081526020016000205490506000600d60008381526020019081526020016000209050610d0d604051806060016040528060278152602001614ea460279139826001018054610c8a90614657565b80601f0160208091040260200160405190810160405280929190818152602001828054610cb690614657565b8015610d035780601f10610cd857610100808354040283529160200191610d03565b820191906000526020600020905b815481529060010190602001808311610ce657829003601f168201915b50505050506125fc565b610d3d604051806060016040528060228152602001614e8260229139826003015483600501548460060154612698565b610e156040518060400160405280601b81526020017f426f73732025732068617320257320485020616e64202573204144000000000081525060066000018054610d8690614657565b80601f0160208091040260200160405190810160405280929190818152602001828054610db290614657565b8015610dff5780601f10610dd457610100808354040283529160200191610dff565b820191906000526020600020905b815481529060010190602001808311610de257829003601f168201915b505050505060066002015460066004015461273a565b6000816003015411610e5c576040517f08c379a0000000000000000000000000000000000000000000000000000000008152600401610e53906141e4565b60405180910390fd5b600060066002015411610ea4576040517f08c379a0000000000000000000000000000000000000000000000000000000008152600401610e9b90614144565b60405180910390fd5b60066004015481600601548260030154610ebe919061448c565b1015610ed35760008160030181905550610f00565b60066004015481600601548260030154610eed919061448c565b610ef7919061456d565b81600301819055505b610f26604051806060016040528060288152602001614e5a6028913982600301546127dc565b7f4f51627b06f649eb620fc88334b4074598cd524862edfca43ded8481a4eaf6526006600201548260030154604051610f60929190614380565b60405180910390a15050565b606060018054610f7b90614657565b80601f0160208091040260200160405190810160405280929190818152602001828054610fa790614657565b8015610ff45780601f10610fc957610100808354040283529160200191610ff4565b820191906000526020600020905b815481529060010190602001808311610fd757829003601f168201915b5050505050905090565b600d60205280600052604060002060009150905080600001549080600101805461102790614657565b80601f016020809104026020016040519081016040528092919081815260200182805461105390614657565b80156110a05780601f10611075576101008083540402835291602001916110a0565b820191906000526020600020905b81548152906001019060200180831161108357829003601f168201915b5050505050908060020180546110b590614657565b80601f01602080910402602001604051908101604052809291908181526020018280546110e190614657565b801561112e5780601f106111035761010080835404028352916020019161112e565b820191906000526020600020905b81548152906001019060200180831161111157829003601f168201915b5050505050908060030154908060040154908060050154908060060154905087565b61116261115b61223f565b8383612878565b5050565b600680600001805461117790614657565b80601f01602080910402602001604051908101604052809291908181526020018280546111a390614657565b80156111f05780601f106111c5576101008083540402835291602001916111f0565b820191906000526020600020905b8154815290600101906020018083116111d357829003601f168201915b50505050509080600101805461120590614657565b80601f016020809104026020016040519081016040528092919081815260200182805461123190614657565b801561127e5780601f106112535761010080835404028352916020019161127e565b820191906000526020600020905b81548152906001019060200180831161126157829003601f168201915b5050505050908060020154908060030154908060040154905085565b6112ab6112a561223f565b83612300565b6112ea576040517f08c379a00000000000000000000000000000000000000000000000000000000081526004016112e190614284565b60405180910390fd5b6112f6848484846129e5565b50505050565b6060600c805480602002602001604051908101604052809291908181526020016000905b828210156114a857838290600052602060002090600702016040518060e00160405290816000820154815260200160018201805461135d90614657565b80601f016020809104026020016040519081016040528092919081815260200182805461138990614657565b80156113d65780601f106113ab576101008083540402835291602001916113d6565b820191906000526020600020905b8154815290600101906020018083116113b957829003601f168201915b505050505081526020016002820180546113ef90614657565b80601f016020809104026020016040519081016040528092919081815260200182805461141b90614657565b80156114685780601f1061143d57610100808354040283529160200191611468565b820191906000526020600020905b81548152906001019060200180831161144b57829003601f168201915b5050505050815260200160038201548152602001600482015481526020016005820154815260200160068201548152505081526020019060010190611320565b50505050905090565b60606000600d60008481526020019081526020016000206040518060e0016040529081600082015481526020016001820180546114ed90614657565b80601f016020809104026020016040519081016040528092919081815260200182805461151990614657565b80156115665780601f1061153b57610100808354040283529160200191611566565b820191906000526020600020905b81548152906001019060200180831161154957829003601f168201915b5050505050815260200160028201805461157f90614657565b80601f01602080910402602001604051908101604052809291908181526020018280546115ab90614657565b80156115f85780601f106115cd576101008083540402835291602001916115f8565b820191906000526020600020905b8154815290600101906020018083116115db57829003601f168201915b505050505081526020016003820154815260200160048201548152602001600582015481526020016006820154815250509050600061163a8260600151612a41565b9050600061164b8360a00151612a41565b9050600061165c8460c00151612a41565b905060006116a2856020015161167189612a41565b876040015187878760405160200161168e96959493929190613d41565b604051602081830303815290604052612bee565b90506000816040516020016116b79190613de6565b6040516020818303038152906040529050809650505050505050919050565b6116de61332b565b6000600f60003373ffffffffffffffffffffffffffffffffffffffff1673ffffffffffffffffffffffffffffffffffffffff16815260200190815260200160002054905060008111156118a757600d60008281526020019081526020016000206040518060e00160405290816000820154815260200160018201805461176390614657565b80601f016020809104026020016040519081016040528092919081815260200182805461178f90614657565b80156117dc5780601f106117b1576101008083540402835291602001916117dc565b820191906000526020600020905b8154815290600101906020018083116117bf57829003601f168201915b505050505081526020016002820180546117f590614657565b80601f016020809104026020016040519081016040528092919081815260200182805461182190614657565b801561186e5780601f106118435761010080835404028352916020019161186e565b820191906000526020600020905b81548152906001019060200180831161185157829003601f168201915b505050505081526020016003820154815260200160048201548152602001600582015481526020016006820154815250509150506118b5565b6118af61332b565b80925050505b90565b6000600f60003373ffffffffffffffffffffffffffffffffffffffff1673ffffffffffffffffffffffffffffffffffffffff1681526020019081526020016000205490506000600d600083815260200190815260200160002090506119c1604051806060016040528060278152602001614ea46027913982600101805461193e90614657565b80601f016020809104026020016040519081016040528092919081815260200182805461196a90614657565b80156119b75780601f1061198c576101008083540402835291602001916119b7565b820191906000526020600020905b81548152906001019060200180831161199a57829003601f168201915b50505050506125fc565b6119f1604051806060016040528060228152602001614e8260229139826003015483600501548460060154612698565b611ac96040518060400160405280601b81526020017f426f73732025732068617320257320485020616e64202573204144000000000081525060066000018054611a3a90614657565b80601f0160208091040260200160405190810160405280929190818152602001828054611a6690614657565b8015611ab35780601f10611a8857610100808354040283529160200191611ab3565b820191906000526020600020905b815481529060010190602001808311611a9657829003601f168201915b505050505060066002015460066004015461273a565b6000816003015411611b10576040517f08c379a0000000000000000000000000000000000000000000000000000000008152600401611b07906141e4565b60405180910390fd5b600060066002015411611b58576040517f08c379a0000000000000000000000000000000000000000000000000000000008152600401611b4f90614144565b60405180910390fd5b80600501546006600201541015611b79576000600660020181905550611b98565b8060050154600660020154611b8e919061456d565b6006600201819055505b611bbf604051806060016040528060258152602001614df5602591396006600201546127dc565b7fb6f2a6f154d050dbdf681fee59096e5c7b34618bcab83b0612cb861fdc1a86dd6006600201548260030154604051611bf9929190614380565b60405180910390a15050565b6000600560008473ffffffffffffffffffffffffffffffffffffffff1673ffffffffffffffffffffffffffffffffffffffff16815260200190815260200160002060008373ffffffffffffffffffffffffffffffffffffffff1673ffffffffffffffffffffffffffffffffffffffff16815260200190815260200160002060009054906101000a900460ff16905092915050565b6000611ca5600b612d8d565b9050611cb13382612d9b565b6040518060e00160405280838152602001600c8481548110611cfc577f4e487b7100000000000000000000000000000000000000000000000000000000600052603260045260246000fd5b90600052602060002090600702016001018054611d1890614657565b80601f0160208091040260200160405190810160405280929190818152602001828054611d4490614657565b8015611d915780601f10611d6657610100808354040283529160200191611d91565b820191906000526020600020905b815481529060010190602001808311611d7457829003601f168201915b50505050508152602001600c8481548110611dd5577f4e487b7100000000000000000000000000000000000000000000000000000000600052603260045260246000fd5b90600052602060002090600702016002018054611df190614657565b80601f0160208091040260200160405190810160405280929190818152602001828054611e1d90614657565b8015611e6a5780601f10611e3f57610100808354040283529160200191611e6a565b820191906000526020600020905b815481529060010190602001808311611e4d57829003601f168201915b50505050508152602001600c8481548110611eae577f4e487b7100000000000000000000000000000000000000000000000000000000600052603260045260246000fd5b9060005260206000209060070201600301548152602001600c8481548110611eff577f4e487b7100000000000000000000000000000000000000000000000000000000600052603260045260246000fd5b9060005260206000209060070201600301548152602001600c8481548110611f50577f4e487b7100000000000000000000000000000000000000000000000000000000600052603260045260246000fd5b9060005260206000209060070201600501548152602001600c8481548110611fa1577f4e487b7100000000000000000000000000000000000000000000000000000000600052603260045260246000fd5b906000526020600020906007020160060154815250600d6000838152602001908152602001600020600082015181600001556020820151816001019080519060200190611fef929190613368565b50604082015181600201908051906020019061200c929190613368565b50606082015181600301556080820151816004015560a0820151816005015560c0820151816006015590505080600f60003373ffffffffffffffffffffffffffffffffffffffff1673ffffffffffffffffffffffffffffffffffffffff1681526020019081526020016000208190555061209f6040518060600160405280602b8152602001614ecb602b91398284612db9565b6120a9600b612e58565b7f4bc303fd457a97b4691b9af582ce71868a3d258638c8d4f8c60988a0f0bfb8cd3382846040516120dc93929190613e6f565b60405180910390a15050565b612184848484846040516024016121029493929190613f3c565b6040516020818303038152906040527f5d1a971a000000000000000000000000000000000000000000000000000000007bffffffffffffffffffffffffffffffffffffffffffffffffffffffff19166020820180517bffffffffffffffffffffffffffffffffffffffffffffffffffffffff8381831617835250505050612e6e565b50505050565b60007f01ffc9a7000000000000000000000000000000000000000000000000000000007bffffffffffffffffffffffffffffffffffffffffffffffffffffffff1916827bffffffffffffffffffffffffffffffffffffffffffffffffffffffff1916149050919050565b6121fd81612e97565b61223c576040517f08c379a000000000000000000000000000000000000000000000000000000000815260040161223390614244565b60405180910390fd5b50565b600033905090565b816004600083815260200190815260200160002060006101000a81548173ffffffffffffffffffffffffffffffffffffffff021916908373ffffffffffffffffffffffffffffffffffffffff160217905550808273ffffffffffffffffffffffffffffffffffffffff166122ba83610930565b73ffffffffffffffffffffffffffffffffffffffff167f8c5be1e5ebec7d5bd14f71427d1e84f3dd0314c0f7b2291e5b200ac8c7c3b92560405160405180910390a45050565b60008061230c83610930565b90508073ffffffffffffffffffffffffffffffffffffffff168473ffffffffffffffffffffffffffffffffffffffff16148061234e575061234d8185611c05565b5b8061238c57508373ffffffffffffffffffffffffffffffffffffffff1661237484610752565b73ffffffffffffffffffffffffffffffffffffffff16145b91505092915050565b8273ffffffffffffffffffffffffffffffffffffffff166123b582610930565b73ffffffffffffffffffffffffffffffffffffffff161461240b576040517f08c379a000000000000000000000000000000000000000000000000000000000815260040161240290614124565b60405180910390fd5b600073ffffffffffffffffffffffffffffffffffffffff168273ffffffffffffffffffffffffffffffffffffffff16141561247b576040517f08c379a000000000000000000000000000000000000000000000000000000000815260040161247290614184565b60405180910390fd5b612486838383612f03565b612491600082612247565b6001600360008573ffffffffffffffffffffffffffffffffffffffff1673ffffffffffffffffffffffffffffffffffffffff16815260200190815260200160002060008282546124e1919061456d565b925050819055506001600360008473ffffffffffffffffffffffffffffffffffffffff1673ffffffffffffffffffffffffffffffffffffffff1681526020019081526020016000206000828254612538919061448c565b92505081905550816002600083815260200190815260200160002060006101000a81548173ffffffffffffffffffffffffffffffffffffffff021916908373ffffffffffffffffffffffffffffffffffffffff160217905550808273ffffffffffffffffffffffffffffffffffffffff168473ffffffffffffffffffffffffffffffffffffffff167fddf252ad1be2c89b69c2b068fc378daa952ba7f163c4a11628f55a4df523b3ef60405160405180910390a46125f7838383612f08565b505050565b6126948282604051602401612612929190613f05565b6040516020818303038152906040527f4b5c4277000000000000000000000000000000000000000000000000000000007bffffffffffffffffffffffffffffffffffffffffffffffffffffffff19166020820180517bffffffffffffffffffffffffffffffffffffffffffffffffffffffff8381831617835250505050612e6e565b5050565b612734848484846040516024016126b294939291906140b8565b6040516020818303038152906040527fa7a87853000000000000000000000000000000000000000000000000000000007bffffffffffffffffffffffffffffffffffffffffffffffffffffffff19166020820180517bffffffffffffffffffffffffffffffffffffffffffffffffffffffff8381831617835250505050612e6e565b50505050565b6127d6848484846040516024016127549493929190613f96565b6040516020818303038152906040527ff45d7d2c000000000000000000000000000000000000000000000000000000007bffffffffffffffffffffffffffffffffffffffffffffffffffffffff19166020820180517bffffffffffffffffffffffffffffffffffffffffffffffffffffffff8381831617835250505050612e6e565b50505050565b61287482826040516024016127f292919061404a565b6040516020818303038152906040527fb60e72cc000000000000000000000000000000000000000000000000000000007bffffffffffffffffffffffffffffffffffffffffffffffffffffffff19166020820180517bffffffffffffffffffffffffffffffffffffffffffffffffffffffff8381831617835250505050612e6e565b5050565b8173ffffffffffffffffffffffffffffffffffffffff168373ffffffffffffffffffffffffffffffffffffffff1614156128e7576040517f08c379a00000000000000000000000000000000000000000000000000000000081526004016128de906141a4565b60405180910390fd5b80600560008573ffffffffffffffffffffffffffffffffffffffff1673ffffffffffffffffffffffffffffffffffffffff16815260200190815260200160002060008473ffffffffffffffffffffffffffffffffffffffff1673ffffffffffffffffffffffffffffffffffffffff16815260200190815260200160002060006101000a81548160ff0219169083151502179055508173ffffffffffffffffffffffffffffffffffffffff168373ffffffffffffffffffffffffffffffffffffffff167f17307eab39ab6107e8899845ad3d59bd9653f200f220920489ca2b5937696c31836040516129d89190613ec8565b60405180910390a3505050565b6129f0848484612395565b6129fc84848484612f0d565b612a3b576040517f08c379a0000000000000000000000000000000000000000000000000000000008152600401612a3290614104565b60405180910390fd5b50505050565b60606000821415612a89576040518060400160405280600181526020017f30000000000000000000000000000000000000000000000000000000000000008152509050612be9565b600082905060005b60008214612abb578080612aa4906146ba565b915050600a82612ab491906144e2565b9150612a91565b60008167ffffffffffffffff811115612afd577f4e487b7100000000000000000000000000000000000000000000000000000000600052604160045260246000fd5b6040519080825280601f01601f191660200182016040528015612b2f5781602001600182028036833780820191505090505b5090505b60008514612be257600182612b48919061456d565b9150600a85612b579190614703565b6030612b63919061448c565b60f81b818381518110612b9f577f4e487b7100000000000000000000000000000000000000000000000000000000600052603260045260246000fd5b60200101907effffffffffffffffffffffffffffffffffffffffffffffffffffffffffffff1916908160001a905350600a85612bdb91906144e2565b9450612b33565b8093505050505b919050565b6060600082511415612c1157604051806020016040528060008152509050612d88565b6000604051806060016040528060408152602001614e1a6040913990506000600360028551612c40919061448c565b612c4a91906144e2565b6004612c569190614513565b90506000602082612c67919061448c565b67ffffffffffffffff811115612ca6577f4e487b7100000000000000000000000000000000000000000000000000000000600052604160045260246000fd5b6040519080825280601f01601f191660200182016040528015612cd85781602001600182028036833780820191505090505b509050818152600183018586518101602084015b81831015612d47576003830192508251603f8160121c168501518253600182019150603f81600c1c168501518253600182019150603f8160061c168501518253600182019150603f8116850151825360018201915050612cec565b600389510660018114612d615760028114612d7157612d7c565b613d3d60f01b6002830352612d7c565b603d60f81b60018303525b50505050508093505050505b919050565b600081600001549050919050565b612db58282604051806020016040528060008152506130a4565b5050565b612e53838383604051602401612dd19392919061407a565b6040516020818303038152906040527fca47c4eb000000000000000000000000000000000000000000000000000000007bffffffffffffffffffffffffffffffffffffffffffffffffffffffff19166020820180517bffffffffffffffffffffffffffffffffffffffffffffffffffffffff8381831617835250505050612e6e565b505050565b6001816000016000828254019250508190555050565b60008151905060006a636f6e736f6c652e6c6f679050602083016000808483855afa5050505050565b60008073ffffffffffffffffffffffffffffffffffffffff166002600084815260200190815260200160002060009054906101000a900473ffffffffffffffffffffffffffffffffffffffff1673ffffffffffffffffffffffffffffffffffffffff1614159050919050565b505050565b505050565b6000612f2e8473ffffffffffffffffffffffffffffffffffffffff166130ff565b15613097578373ffffffffffffffffffffffffffffffffffffffff1663150b7a02612f5761223f565b8786866040518563ffffffff1660e01b8152600401612f799493929190613e23565b602060405180830381600087803b158015612f9357600080fd5b505af1925050508015612fc457506040513d601f19601f82011682018060405250810190612fc191906136ac565b60015b613047573d8060008114612ff4576040519150601f19603f3d011682016040523d82523d6000602084013e612ff9565b606091505b5060008151141561303f576040517f08c379a000000000000000000000000000000000000000000000000000000000815260040161303690614104565b60405180910390fd5b805181602001fd5b63150b7a0260e01b7bffffffffffffffffffffffffffffffffffffffffffffffffffffffff1916817bffffffffffffffffffffffffffffffffffffffffffffffffffffffff19161491505061309c565b600190505b949350505050565b6130ae8383613122565b6130bb6000848484612f0d565b6130fa576040517f08c379a00000000000000000000000000000000000000000000000000000000081526004016130f190614104565b60405180910390fd5b505050565b6000808273ffffffffffffffffffffffffffffffffffffffff163b119050919050565b600073ffffffffffffffffffffffffffffffffffffffff168273ffffffffffffffffffffffffffffffffffffffff161415613192576040517f08c379a000000000000000000000000000000000000000000000000000000000815260040161318990614224565b60405180910390fd5b61319b81612e97565b156131db576040517f08c379a00000000000000000000000000000000000000000000000000000000081526004016131d290614164565b60405180910390fd5b6131e760008383612f03565b6001600360008473ffffffffffffffffffffffffffffffffffffffff1673ffffffffffffffffffffffffffffffffffffffff1681526020019081526020016000206000828254613237919061448c565b92505081905550816002600083815260200190815260200160002060006101000a81548173ffffffffffffffffffffffffffffffffffffffff021916908373ffffffffffffffffffffffffffffffffffffffff160217905550808273ffffffffffffffffffffffffffffffffffffffff16600073ffffffffffffffffffffffffffffffffffffffff167fddf252ad1be2c89b69c2b068fc378daa952ba7f163c4a11628f55a4df523b3ef60405160405180910390a46132f860008383612f08565b5050565b6040518060a0016040528060608152602001606081526020016000815260200160008152602001600081525090565b6040518060e00160405280600081526020016060815260200160608152602001600081526020016000815260200160008152602001600081525090565b82805461337490614657565b90600052602060002090601f01602090048101928261339657600085556133dd565b82601f106133af57805160ff19168380011785556133dd565b828001600101855582156133dd579182015b828111156133dc5782518255916020019190600101906133c1565b5b5090506133ea91906133ee565b5090565b5b808211156134075760008160009055506001016133ef565b5090565b600061341e613419846143ce565b6143a9565b90508281526020810184848401111561343657600080fd5b613441848285614615565b509392505050565b60008135905061345881614d98565b92915050565b60008135905061346d81614daf565b92915050565b60008135905061348281614dc6565b92915050565b60008151905061349781614dc6565b92915050565b600082601f8301126134ae57600080fd5b81356134be84826020860161340b565b91505092915050565b6000813590506134d681614ddd565b92915050565b6000602082840312156134ee57600080fd5b60006134fc84828501613449565b91505092915050565b6000806040838503121561351857600080fd5b600061352685828601613449565b925050602061353785828601613449565b9150509250929050565b60008060006060848603121561355657600080fd5b600061356486828701613449565b935050602061357586828701613449565b9250506040613586868287016134c7565b9150509250925092565b600080600080608085870312156135a657600080fd5b60006135b487828801613449565b94505060206135c587828801613449565b93505060406135d6878288016134c7565b925050606085013567ffffffffffffffff8111156135f357600080fd5b6135ff8782880161349d565b91505092959194509250565b6000806040838503121561361e57600080fd5b600061362c85828601613449565b925050602061363d8582860161345e565b9150509250929050565b6000806040838503121561365a57600080fd5b600061366885828601613449565b9250506020613679858286016134c7565b9150509250929050565b60006020828403121561369557600080fd5b60006136a384828501613473565b91505092915050565b6000602082840312156136be57600080fd5b60006136cc84828501613488565b91505092915050565b6000602082840312156136e757600080fd5b60006136f5848285016134c7565b91505092915050565b600061370a8383613bdd565b905092915050565b61371b816145a1565b82525050565b600061372c8261440f565b613736818561443d565b935083602082028501613748856143ff565b8060005b85811015613784578484038952815161376585826136fe565b945061377083614430565b925060208a0199505060018101905061374c565b50829750879550505050505092915050565b61379f816145b3565b82525050565b60006137b08261441a565b6137ba818561444e565b93506137ca818560208601614624565b6137d3816147f0565b840191505092915050565b60006137e982614425565b6137f3818561445f565b9350613803818560208601614624565b61380c816147f0565b840191505092915050565b600061382282614425565b61382c8185614470565b935061383c818560208601614624565b613845816147f0565b840191505092915050565b600061385b82614425565b6138658185614481565b9350613875818560208601614624565b80840191505092915050565b600061388e600b83614481565b915061389982614801565b600b82019050919050565b60006138b1603283614470565b91506138bc8261482a565b604082019050919050565b60006138d4602583614470565b91506138df82614879565b604082019050919050565b60006138f7602883614470565b9150613902826148c8565b604082019050919050565b600061391a601c83614470565b915061392582614917565b602082019050919050565b600061393d602483614470565b915061394882614940565b604082019050919050565b6000613960601983614470565b915061396b8261498f565b602082019050919050565b6000613983602983614470565b915061398e826149b8565b604082019050919050565b60006139a6602d83614470565b91506139b182614a07565b604082019050919050565b60006139c9603e83614470565b91506139d482614a56565b604082019050919050565b60006139ec602083614470565b91506139f782614aa5565b602082019050919050565b6000613a0f600a83614481565b9150613a1a82614ace565b600a82019050919050565b6000613a32601883614470565b9150613a3d82614af7565b602082019050919050565b6000613a55606d83614481565b9150613a6082614b20565b606d82019050919050565b6000613a78602183614470565b9150613a8382614bbb565b604082019050919050565b6000613a9b601d83614481565b9150613aa682614c0a565b601d82019050919050565b6000613abe601683614481565b9150613ac982614c33565b601682019050919050565b6000613ae1604083614481565b9150613aec82614c5c565b604082019050919050565b6000613b04603d83614481565b9150613b0f82614cab565b603d82019050919050565b6000613b27602e83614470565b9150613b3282614cfa565b604082019050919050565b6000613b4a603883614481565b9150613b5582614d49565b603882019050919050565b600060a0830160008301518482036000860152613b7d82826137de565b91505060208301518482036020860152613b9782826137de565b9150506040830151613bac6040860182613d23565b506060830151613bbf6060860182613d23565b506080830151613bd26080860182613d23565b508091505092915050565b600060e083016000830151613bf56000860182613d23565b5060208301518482036020860152613c0d82826137de565b91505060408301518482036040860152613c2782826137de565b9150506060830151613c3c6060860182613d23565b506080830151613c4f6080860182613d23565b5060a0830151613c6260a0860182613d23565b5060c0830151613c7560c0860182613d23565b508091505092915050565b600060e083016000830151613c986000860182613d23565b5060208301518482036020860152613cb082826137de565b91505060408301518482036040860152613cca82826137de565b9150506060830151613cdf6060860182613d23565b506080830151613cf26080860182613d23565b5060a0830151613d0560a0860182613d23565b5060c0830151613d1860c0860182613d23565b508091505092915050565b613d2c8161460b565b82525050565b613d3b8161460b565b82525050565b6000613d4c82613a02565b9150613d588289613850565b9150613d6382613881565b9150613d6f8288613850565b9150613d7a82613a48565b9150613d868287613850565b9150613d9182613af7565b9150613d9d8286613850565b9150613da882613ad4565b9150613db48285613850565b9150613dbf82613b3d565b9150613dcb8284613850565b9150613dd682613ab1565b9150819050979650505050505050565b6000613df182613a8e565b9150613dfd8284613850565b915081905092915050565b6000602082019050613e1d6000830184613712565b92915050565b6000608082019050613e386000830187613712565b613e456020830186613712565b613e526040830185613d32565b8181036060830152613e6481846137a5565b905095945050505050565b6000606082019050613e846000830186613712565b613e916020830185613d32565b613e9e6040830184613d32565b949350505050565b60006020820190508181036000830152613ec08184613721565b905092915050565b6000602082019050613edd6000830184613796565b92915050565b60006020820190508181036000830152613efd8184613817565b905092915050565b60006040820190508181036000830152613f1f8185613817565b90508181036020830152613f338184613817565b90509392505050565b60006080820190508181036000830152613f568187613817565b90508181036020830152613f6a8186613817565b9050613f796040830185613d32565b8181036060830152613f8b8184613817565b905095945050505050565b60006080820190508181036000830152613fb08187613817565b90508181036020830152613fc48186613817565b9050613fd36040830185613d32565b613fe06060830184613d32565b95945050505050565b600060a08201905081810360008301526140038188613817565b905081810360208301526140178187613817565b90506140266040830186613d32565b6140336060830185613d32565b6140406080830184613d32565b9695505050505050565b600060408201905081810360008301526140648185613817565b90506140736020830184613d32565b9392505050565b600060608201905081810360008301526140948186613817565b90506140a36020830185613d32565b6140b06040830184613d32565b949350505050565b600060808201905081810360008301526140d28187613817565b90506140e16020830186613d32565b6140ee6040830185613d32565b6140fb6060830184613d32565b95945050505050565b6000602082019050818103600083015261411d816138a4565b9050919050565b6000602082019050818103600083015261413d816138c7565b9050919050565b6000602082019050818103600083015261415d816138ea565b9050919050565b6000602082019050818103600083015261417d8161390d565b9050919050565b6000602082019050818103600083015261419d81613930565b9050919050565b600060208201905081810360008301526141bd81613953565b9050919050565b600060208201905081810360008301526141dd81613976565b9050919050565b600060208201905081810360008301526141fd81613999565b9050919050565b6000602082019050818103600083015261421d816139bc565b9050919050565b6000602082019050818103600083015261423d816139df565b9050919050565b6000602082019050818103600083015261425d81613a25565b9050919050565b6000602082019050818103600083015261427d81613a6b565b9050919050565b6000602082019050818103600083015261429d81613b1a565b9050919050565b600060208201905081810360008301526142be8184613b60565b905092915050565b600060208201905081810360008301526142e08184613c80565b905092915050565b60006020820190506142fd6000830184613d32565b92915050565b600060e082019050614318600083018a613d32565b818103602083015261432a8189613817565b9050818103604083015261433e8188613817565b905061434d6060830187613d32565b61435a6080830186613d32565b61436760a0830185613d32565b61437460c0830184613d32565b98975050505050505050565b60006040820190506143956000830185613d32565b6143a26020830184613d32565b9392505050565b60006143b36143c4565b90506143bf8282614689565b919050565b6000604051905090565b600067ffffffffffffffff8211156143e9576143e86147c1565b5b6143f2826147f0565b9050602081019050919050565b6000819050602082019050919050565b600081519050919050565b600081519050919050565b600081519050919050565b6000602082019050919050565b600082825260208201905092915050565b600082825260208201905092915050565b600082825260208201905092915050565b600082825260208201905092915050565b600081905092915050565b60006144978261460b565b91506144a28361460b565b9250827fffffffffffffffffffffffffffffffffffffffffffffffffffffffffffffffff038211156144d7576144d6614734565b5b828201905092915050565b60006144ed8261460b565b91506144f88361460b565b92508261450857614507614763565b5b828204905092915050565b600061451e8261460b565b91506145298361460b565b9250817fffffffffffffffffffffffffffffffffffffffffffffffffffffffffffffffff048311821515161561456257614561614734565b5b828202905092915050565b60006145788261460b565b91506145838361460b565b92508282101561459657614595614734565b5b828203905092915050565b60006145ac826145eb565b9050919050565b60008115159050919050565b60007fffffffff0000000000000000000000000000000000000000000000000000000082169050919050565b600073ffffffffffffffffffffffffffffffffffffffff82169050919050565b6000819050919050565b82818337600083830152505050565b60005b83811015614642578082015181840152602081019050614627565b83811115614651576000848401525b50505050565b6000600282049050600182168061466f57607f821691505b6020821081141561468357614682614792565b5b50919050565b614692826147f0565b810181811067ffffffffffffffff821117156146b1576146b06147c1565b5b80604052505050565b60006146c58261460b565b91507fffffffffffffffffffffffffffffffffffffffffffffffffffffffffffffffff8214156146f8576146f7614734565b5b600182019050919050565b600061470e8261460b565b91506147198361460b565b92508261472957614728614763565b5b828206905092915050565b7f4e487b7100000000000000000000000000000000000000000000000000000000600052601160045260246000fd5b7f4e487b7100000000000000000000000000000000000000000000000000000000600052601260045260246000fd5b7f4e487b7100000000000000000000000000000000000000000000000000000000600052602260045260246000fd5b7f4e487b7100000000000000000000000000000000000000000000000000000000600052604160045260246000fd5b6000601f19601f8301169050919050565b7f202d2d204e465420233a20000000000000000000000000000000000000000000600082015250565b7f4552433732313a207472616e7366657220746f206e6f6e20455243373231526560008201527f63656976657220696d706c656d656e7465720000000000000000000000000000602082015250565b7f4552433732313a207472616e736665722066726f6d20696e636f72726563742060008201527f6f776e6572000000000000000000000000000000000000000000000000000000602082015250565b7f4572726f723a20626f7373206d757374206861766520485020746f206174746160008201527f636b20626f73732e000000000000000000000000000000000000000000000000602082015250565b7f4552433732313a20746f6b656e20616c7265616479206d696e74656400000000600082015250565b7f4552433732313a207472616e7366657220746f20746865207a65726f2061646460008201527f7265737300000000000000000000000000000000000000000000000000000000602082015250565b7f4552433732313a20617070726f766520746f2063616c6c657200000000000000600082015250565b7f4552433732313a2061646472657373207a65726f206973206e6f74206120766160008201527f6c6964206f776e65720000000000000000000000000000000000000000000000602082015250565b7f4572726f723a20636861726163746572206d757374206861766520485020746f60008201527f2061747461636b20626f73732e00000000000000000000000000000000000000602082015250565b7f4552433732313a20617070726f76652063616c6c6572206973206e6f7420746f60008201527f6b656e206f776e6572206e6f7220617070726f76656420666f7220616c6c0000602082015250565b7f4552433732313a206d696e7420746f20746865207a65726f2061646472657373600082015250565b7f7b226e616d65223a202200000000000000000000000000000000000000000000600082015250565b7f4552433732313a20696e76616c696420746f6b656e2049440000000000000000600082015250565b7f222c20226465736372697074696f6e223a2022437269746963616c486974206960008201527f732061207475726e2d6261736564204e46542067616d6520776865726520796f60208201527f752074616b65207475726e7320746f2061747461636b2074686520626f6f732e60408201527f222c2022696d616765223a202200000000000000000000000000000000000000606082015250565b7f4552433732313a20617070726f76616c20746f2063757272656e74206f776e6560008201527f7200000000000000000000000000000000000000000000000000000000000000602082015250565b7f646174613a6170706c69636174696f6e2f6a736f6e3b6261736536342c000000600082015250565b7f2c20226d61785f76616c7565223a203130307d205d7d00000000000000000000600082015250565b7f2c20226d61785f76616c7565223a20333030207d2c207b202274726169745f7460008201527f797065223a202241747461636b2044616d616765222c202276616c7565223a20602082015250565b7f222c202261747472696275746573223a205b207b202274726169745f7479706560008201527f223a20224865616c746820506f696e7473222c202276616c7565223a20000000602082015250565b7f4552433732313a2063616c6c6572206973206e6f7420746f6b656e206f776e6560008201527f72206e6f7220617070726f766564000000000000000000000000000000000000602082015250565b7f2c20226d61785f76616c7565223a203430307d2c207b202274726169745f747960008201527f7065223a2022536869656c64222c202276616c7565223a200000000000000000602082015250565b614da1816145a1565b8114614dac57600080fd5b50565b614db8816145b3565b8114614dc357600080fd5b50565b614dcf816145bf565b8114614dda57600080fd5b50565b614de68161460b565b8114614df157600080fd5b5056fe506c617965722061747461636b656420626f73732e204e657720626f73732068703a2025734142434445464748494a4b4c4d4e4f505152535455565758595a6162636465666768696a6b6c6d6e6f707172737475767778797a303132333435363738392b2f426f73732061747461636b656420706c617965722e204e657720706c617965722068703a2025730a506c61796572206861732025732048502c20257320414420616e642025732053680a0a506c6179657220772f206368617261637465722025732061626f757420746f2061747461636b4d696e746564204e465420772f20746f6b656e496420257320616e64206368617261637465724964202573a26469706673582212203a4dca787ddb1cbd6966252a87b9dec42cae1e38a5713d5599c73bdfde41188864736f6c63430008040033446f6e6520696e697469616c697a696e6720257320772f2048502025732c20696d67202573446f6e6520696e697469616c697a696e6720626f737320257320772f2048502025732c20696d67202573",
  "linkReferences": {},
  "deployedLinkReferences": {}
}